{
  "_format": "hh-sol-artifact-1",
  "contractName": "Tracker",
  "sourceName": "contracts/Tracker.sol",
  "abi": [
    {
      "inputs": [],
      "stateMutability": "nonpayable",
      "type": "constructor"
    },
    {
      "inputs": [
        {
          "internalType": "string",
          "name": "name",
          "type": "string"
        },
        {
          "internalType": "string",
          "name": "repoLink",
          "type": "string"
        },
        {
          "internalType": "bytes",
          "name": "cid",
          "type": "bytes"
        }
      ],
      "name": "add",
      "outputs": [
        {
          "internalType": "uint256",
          "name": "",
          "type": "uint256"
        }
      ],
      "stateMutability": "nonpayable",
      "type": "function"
    },
    {
      "inputs": [],
      "name": "allProjects",
      "outputs": [
        {
          "components": [
            {
              "internalType": "uint256",
              "name": "id",
              "type": "uint256"
            },
            {
              "internalType": "string",
              "name": "name",
              "type": "string"
            },
            {
              "internalType": "string",
              "name": "repoLink",
              "type": "string"
            },
            {
              "internalType": "bytes",
              "name": "cid",
              "type": "bytes"
            }
          ],
          "internalType": "struct Tracker.Project[]",
          "name": "",
          "type": "tuple[]"
        }
      ],
      "stateMutability": "view",
      "type": "function"
    },
    {
      "inputs": [],
      "name": "owner",
      "outputs": [
        {
          "internalType": "address payable",
          "name": "",
          "type": "address"
        }
      ],
      "stateMutability": "view",
      "type": "function"
    },
    {
      "inputs": [
        {
          "internalType": "uint256",
          "name": "",
          "type": "uint256"
        }
      ],
      "name": "projects",
      "outputs": [
        {
          "internalType": "uint256",
          "name": "id",
          "type": "uint256"
        },
        {
          "internalType": "string",
          "name": "name",
          "type": "string"
        },
        {
          "internalType": "string",
          "name": "repoLink",
          "type": "string"
        },
        {
          "internalType": "bytes",
          "name": "cid",
          "type": "bytes"
        }
      ],
      "stateMutability": "view",
      "type": "function"
    },
    {
      "inputs": [
        {
          "internalType": "uint16",
          "name": "id",
          "type": "uint16"
        },
        {
          "internalType": "bytes",
          "name": "cid",
          "type": "bytes"
        }
      ],
      "name": "updateCid",
      "outputs": [],
      "stateMutability": "nonpayable",
      "type": "function"
    }
  ],
  "bytecode": "0x608060405234801561001057600080fd5b5033600260006101000a81548173ffffffffffffffffffffffffffffffffffffffff021916908373ffffffffffffffffffffffffffffffffffffffff16021790555061138d806100616000396000f3fe608060405234801561001057600080fd5b50600436106100575760003560e01c8063107046bd1461005c5780632adf13b21461008f5780638da5cb5b146100ad5780639258b253146100cb578063c22585c2146100e7575b600080fd5b610076600480360381019061007191906107a9565b610117565b60405161008694939291906108ca565b60405180910390f35b6100976102df565b6040516100a49190610afa565b60405180910390f35b6100b561055e565b6040516100c29190610b5d565b60405180910390f35b6100e560048036038101906100e09190610c17565b610584565b005b61010160048036038101906100fc9190610ccd565b6105b8565b60405161010e9190610d81565b60405180910390f35b600060205280600052604060002060009150905080600001549080600101805461014090610dcb565b80601f016020809104026020016040519081016040528092919081815260200182805461016c90610dcb565b80156101b95780601f1061018e576101008083540402835291602001916101b9565b820191906000526020600020905b81548152906001019060200180831161019c57829003601f168201915b5050505050908060020180546101ce90610dcb565b80601f01602080910402602001604051908101604052809291908181526020018280546101fa90610dcb565b80156102475780601f1061021c57610100808354040283529160200191610247565b820191906000526020600020905b81548152906001019060200180831161022a57829003601f168201915b50505050509080600301805461025c90610dcb565b80601f016020809104026020016040519081016040528092919081815260200182805461028890610dcb565b80156102d55780601f106102aa576101008083540402835291602001916102d5565b820191906000526020600020905b8154815290600101906020018083116102b857829003601f168201915b5050505050905084565b6060600060015467ffffffffffffffff8111156102ff576102fe610dfc565b5b60405190808252806020026020018201604052801561033857816020015b610325610741565b81526020019060019003908161031d5790505b50905060005b600154811015610556576000808281526020019081526020016000206040518060800160405290816000820154815260200160018201805461037f90610dcb565b80601f01602080910402602001604051908101604052809291908181526020018280546103ab90610dcb565b80156103f85780601f106103cd576101008083540402835291602001916103f8565b820191906000526020600020905b8154815290600101906020018083116103db57829003601f168201915b5050505050815260200160028201805461041190610dcb565b80601f016020809104026020016040519081016040528092919081815260200182805461043d90610dcb565b801561048a5780601f1061045f5761010080835404028352916020019161048a565b820191906000526020600020905b81548152906001019060200180831161046d57829003601f168201915b505050505081526020016003820180546104a390610dcb565b80601f01602080910402602001604051908101604052809291908181526020018280546104cf90610dcb565b801561051c5780601f106104f15761010080835404028352916020019161051c565b820191906000526020600020905b8154815290600101906020018083116104ff57829003601f168201915b50505050508152505082828151811061053857610537610e2b565b5b6020026020010181905250808061054e90610e89565b91505061033e565b508091505090565b600260009054906101000a900473ffffffffffffffffffffffffffffffffffffffff1681565b60008060008561ffff168152602001908152602001600020905082828260030191826105b1929190611088565b5050505050565b6000600160008154809291906105cd90610e89565b91905055506105da610741565b60015481600001818152505087878080601f016020809104026020016040519081016040528093929190818152602001838380828437600081840152601f19601f82011690508083019250505050505050816020018190525085858080601f016020809104026020016040519081016040528093929190818152602001838380828437600081840152601f19601f82011690508083019250505050505050816040018190525083838080601f016020809104026020016040519081016040528093929190818152602001838380828437600081840152601f19601f82011690508083019250505050505050816060018190525080600080600154815260200190815260200160002060008201518160000155602082015181600101908161070191906111b3565b50604082015181600201908161071791906111b3565b50606082015181600301908161072d9190611285565b509050506001549150509695505050505050565b6040518060800160405280600081526020016060815260200160608152602001606081525090565b600080fd5b600080fd5b6000819050919050565b61078681610773565b811461079157600080fd5b50565b6000813590506107a38161077d565b92915050565b6000602082840312156107bf576107be610769565b5b60006107cd84828501610794565b91505092915050565b6107df81610773565b82525050565b600081519050919050565b600082825260208201905092915050565b60005b8381101561081f578082015181840152602081019050610804565b60008484015250505050565b6000601f19601f8301169050919050565b6000610847826107e5565b61085181856107f0565b9350610861818560208601610801565b61086a8161082b565b840191505092915050565b600081519050919050565b600082825260208201905092915050565b600061089c82610875565b6108a68185610880565b93506108b6818560208601610801565b6108bf8161082b565b840191505092915050565b60006080820190506108df60008301876107d6565b81810360208301526108f1818661083c565b90508181036040830152610905818561083c565b905081810360608301526109198184610891565b905095945050505050565b600081519050919050565b600082825260208201905092915050565b6000819050602082019050919050565b61095981610773565b82525050565b600082825260208201905092915050565b600061097b826107e5565b610985818561095f565b9350610995818560208601610801565b61099e8161082b565b840191505092915050565b600082825260208201905092915050565b60006109c582610875565b6109cf81856109a9565b93506109df818560208601610801565b6109e88161082b565b840191505092915050565b6000608083016000830151610a0b6000860182610950565b5060208301518482036020860152610a238282610970565b91505060408301518482036040860152610a3d8282610970565b91505060608301518482036060860152610a5782826109ba565b9150508091505092915050565b6000610a7083836109f3565b905092915050565b6000602082019050919050565b6000610a9082610924565b610a9a818561092f565b935083602082028501610aac85610940565b8060005b85811015610ae85784840389528151610ac98582610a64565b9450610ad483610a78565b925060208a01995050600181019050610ab0565b50829750879550505050505092915050565b60006020820190508181036000830152610b148184610a85565b905092915050565b600073ffffffffffffffffffffffffffffffffffffffff82169050919050565b6000610b4782610b1c565b9050919050565b610b5781610b3c565b82525050565b6000602082019050610b726000830184610b4e565b92915050565b600061ffff82169050919050565b610b8f81610b78565b8114610b9a57600080fd5b50565b600081359050610bac81610b86565b92915050565b600080fd5b600080fd5b600080fd5b60008083601f840112610bd757610bd6610bb2565b5b8235905067ffffffffffffffff811115610bf457610bf3610bb7565b5b602083019150836001820283011115610c1057610c0f610bbc565b5b9250929050565b600080600060408486031215610c3057610c2f610769565b5b6000610c3e86828701610b9d565b935050602084013567ffffffffffffffff811115610c5f57610c5e61076e565b5b610c6b86828701610bc1565b92509250509250925092565b60008083601f840112610c8d57610c8c610bb2565b5b8235905067ffffffffffffffff811115610caa57610ca9610bb7565b5b602083019150836001820283011115610cc657610cc5610bbc565b5b9250929050565b60008060008060008060608789031215610cea57610ce9610769565b5b600087013567ffffffffffffffff811115610d0857610d0761076e565b5b610d1489828a01610c77565b9650965050602087013567ffffffffffffffff811115610d3757610d3661076e565b5b610d4389828a01610c77565b9450945050604087013567ffffffffffffffff811115610d6657610d6561076e565b5b610d7289828a01610bc1565b92509250509295509295509295565b6000602082019050610d9660008301846107d6565b92915050565b7f4e487b7100000000000000000000000000000000000000000000000000000000600052602260045260246000fd5b60006002820490506001821680610de357607f821691505b602082108103610df657610df5610d9c565b5b50919050565b7f4e487b7100000000000000000000000000000000000000000000000000000000600052604160045260246000fd5b7f4e487b7100000000000000000000000000000000000000000000000000000000600052603260045260246000fd5b7f4e487b7100000000000000000000000000000000000000000000000000000000600052601160045260246000fd5b6000610e9482610773565b91507fffffffffffffffffffffffffffffffffffffffffffffffffffffffffffffffff8203610ec657610ec5610e5a565b5b600182019050919050565b600082905092915050565b60008190508160005260206000209050919050565b60006020601f8301049050919050565b600082821b905092915050565b600060088302610f3e7fffffffffffffffffffffffffffffffffffffffffffffffffffffffffffffffff82610f01565b610f488683610f01565b95508019841693508086168417925050509392505050565b6000819050919050565b6000610f85610f80610f7b84610773565b610f60565b610773565b9050919050565b6000819050919050565b610f9f83610f6a565b610fb3610fab82610f8c565b848454610f0e565b825550505050565b600090565b610fc8610fbb565b610fd3818484610f96565b505050565b5b81811015610ff757610fec600082610fc0565b600181019050610fd9565b5050565b601f82111561103c5761100d81610edc565b61101684610ef1565b81016020851015611025578190505b61103961103185610ef1565b830182610fd8565b50505b505050565b600082821c905092915050565b600061105f60001984600802611041565b1980831691505092915050565b6000611078838361104e565b9150826002028217905092915050565b6110928383610ed1565b67ffffffffffffffff8111156110ab576110aa610dfc565b5b6110b58254610dcb565b6110c0828285610ffb565b6000601f8311600181146110ef57600084156110dd578287013590505b6110e7858261106c565b86555061114f565b601f1984166110fd86610edc565b60005b8281101561112557848901358255600182019150602085019450602081019050611100565b86831015611142578489013561113e601f89168261104e565b8355505b6001600288020188555050505b50505050505050565b60008190508160005260206000209050919050565b601f8211156111ae5761117f81611158565b61118884610ef1565b81016020851015611197578190505b6111ab6111a385610ef1565b830182610fd8565b50505b505050565b6111bc826107e5565b67ffffffffffffffff8111156111d5576111d4610dfc565b5b6111df8254610dcb565b6111ea82828561116d565b600060209050601f83116001811461121d576000841561120b578287015190505b611215858261106c565b86555061127d565b601f19841661122b86611158565b60005b828110156112535784890151825560018201915060208501945060208101905061122e565b86831015611270578489015161126c601f89168261104e565b8355505b6001600288020188555050505b505050505050565b61128e82610875565b67ffffffffffffffff8111156112a7576112a6610dfc565b5b6112b18254610dcb565b6112bc828285610ffb565b600060209050601f8311600181146112ef57600084156112dd578287015190505b6112e7858261106c565b86555061134f565b601f1984166112fd86610edc565b60005b8281101561132557848901518255600182019150602085019450602081019050611300565b86831015611342578489015161133e601f89168261104e565b8355505b6001600288020188555050505b50505050505056fea26469706673582212206d01eca993e4e50e037a2c5924329813c01af31195e053b38d8461f787a6ab2964736f6c63430008110033",
  "linkReferences": {},
  "deployedLinkReferences": {}
}