{
  "_format": "hh-sol-artifact-1",
  "contractName": "Tracker",
  "sourceName": "contracts/Tracker.sol",
  "abi": [
    {
      "inputs": [
        {
          "internalType": "address",
          "name": "_marketApiAddress",
          "type": "address"
        }
      ],
      "stateMutability": "nonpayable",
      "type": "constructor"
    },
    {
      "inputs": [
        {
          "internalType": "string",
          "name": "name",
          "type": "string"
        },
        {
          "internalType": "string",
          "name": "repoLink",
          "type": "string"
        },
        {
          "internalType": "bytes",
          "name": "cid",
          "type": "bytes"
        }
      ],
      "name": "add",
      "outputs": [
        {
          "internalType": "uint256",
          "name": "",
          "type": "uint256"
        }
      ],
      "stateMutability": "nonpayable",
      "type": "function"
    },
    {
      "inputs": [],
      "name": "allProjects",
      "outputs": [
        {
          "components": [
            {
              "internalType": "uint256",
              "name": "id",
              "type": "uint256"
            },
            {
              "internalType": "string",
              "name": "name",
              "type": "string"
            },
            {
              "internalType": "string",
              "name": "repoLink",
              "type": "string"
            },
            {
              "internalType": "bytes",
              "name": "cid",
              "type": "bytes"
            }
          ],
          "internalType": "struct Tracker.Project[]",
          "name": "",
          "type": "tuple[]"
        }
      ],
      "stateMutability": "view",
      "type": "function"
    },
    {
      "inputs": [
        {
          "internalType": "string",
          "name": "addr",
          "type": "string"
        }
      ],
      "name": "get_balance",
      "outputs": [
        {
          "components": [
            {
              "internalType": "uint256",
              "name": "balance",
              "type": "uint256"
            },
            {
              "internalType": "uint256",
              "name": "locked",
              "type": "uint256"
            }
          ],
          "internalType": "struct MarketTypes.GetBalanceReturn",
          "name": "",
          "type": "tuple"
        }
      ],
      "stateMutability": "view",
      "type": "function"
    },
    {
      "inputs": [
        {
          "internalType": "string",
          "name": "addr",
          "type": "string"
        }
      ],
      "name": "market_add_balance",
      "outputs": [],
      "stateMutability": "nonpayable",
      "type": "function"
    },
    {
      "inputs": [
        {
          "internalType": "string",
          "name": "addr",
          "type": "string"
        },
        {
          "internalType": "uint256",
          "name": "tokenAmount",
          "type": "uint256"
        }
      ],
      "name": "market_withdraw_balance",
      "outputs": [
        {
          "components": [
            {
              "internalType": "uint256",
              "name": "amount_withdrawn",
              "type": "uint256"
            }
          ],
          "internalType": "struct MarketTypes.WithdrawBalanceReturn",
          "name": "",
          "type": "tuple"
        }
      ],
      "stateMutability": "nonpayable",
      "type": "function"
    },
    {
      "inputs": [],
      "name": "owner",
      "outputs": [
        {
          "internalType": "address payable",
          "name": "",
          "type": "address"
        }
      ],
      "stateMutability": "view",
      "type": "function"
    },
    {
      "inputs": [
        {
          "internalType": "uint256",
          "name": "",
          "type": "uint256"
        }
      ],
      "name": "projects",
      "outputs": [
        {
          "internalType": "uint256",
          "name": "id",
          "type": "uint256"
        },
        {
          "internalType": "string",
          "name": "name",
          "type": "string"
        },
        {
          "internalType": "string",
          "name": "repoLink",
          "type": "string"
        },
        {
          "internalType": "bytes",
          "name": "cid",
          "type": "bytes"
        }
      ],
      "stateMutability": "view",
      "type": "function"
    },
    {
      "inputs": [
        {
          "internalType": "uint16",
          "name": "id",
          "type": "uint16"
        },
        {
          "internalType": "bytes",
          "name": "cid",
          "type": "bytes"
        }
      ],
      "name": "updateCid",
      "outputs": [],
      "stateMutability": "nonpayable",
      "type": "function"
    }
  ],
  "bytecode": "0x60806040523480156200001157600080fd5b5060405162001c0438038062001c04833981810160405281019062000037919062000129565b806000806101000a81548173ffffffffffffffffffffffffffffffffffffffff021916908373ffffffffffffffffffffffffffffffffffffffff16021790555033600360006101000a81548173ffffffffffffffffffffffffffffffffffffffff021916908373ffffffffffffffffffffffffffffffffffffffff160217905550506200015b565b600080fd5b600073ffffffffffffffffffffffffffffffffffffffff82169050919050565b6000620000f182620000c4565b9050919050565b6200010381620000e4565b81146200010f57600080fd5b50565b6000815190506200012381620000f8565b92915050565b600060208284031215620001425762000141620000bf565b5b6000620001528482850162000112565b91505092915050565b611a99806200016b6000396000f3fe608060405234801561001057600080fd5b50600436106100885760003560e01c80638da5cb5b1161005b5780638da5cb5b1461012a5780639258b25314610148578063c22585c214610164578063dcdd61df1461019457610088565b8063107046bd1461008d57806326f4b80f146100c05780632adf13b2146100dc57806365a9b4a0146100fa575b600080fd5b6100a760048036038101906100a29190610ac1565b6101c4565b6040516100b79493929190610be2565b60405180910390f35b6100da60048036038101906100d59190610d71565b61038c565b005b6100e4610435565b6040516100f19190610f90565b60405180910390f35b610114600480360381019061010f9190610d71565b6106b5565b6040516101219190610fe1565b60405180910390f35b61013261076a565b60405161013f919061103d565b60405180910390f35b610162600480360381019061015d91906110f2565b610790565b005b61017e600480360381019061017991906111a8565b6107c5565b60405161018b919061125c565b60405180910390f35b6101ae60048036038101906101a99190611277565b61094f565b6040516101bb91906112ef565b60405180910390f35b60016020528060005260406000206000915090508060000154908060010180546101ed90611339565b80601f016020809104026020016040519081016040528092919081815260200182805461021990611339565b80156102665780601f1061023b57610100808354040283529160200191610266565b820191906000526020600020905b81548152906001019060200180831161024957829003601f168201915b50505050509080600201805461027b90611339565b80601f01602080910402602001604051908101604052809291908181526020018280546102a790611339565b80156102f45780601f106102c9576101008083540402835291602001916102f4565b820191906000526020600020905b8154815290600101906020018083116102d757829003601f168201915b50505050509080600301805461030990611339565b80601f016020809104026020016040519081016040528092919081815260200182805461033590611339565b80156103825780601f1061035757610100808354040283529160200191610382565b820191906000526020600020905b81548152906001019060200180831161036557829003601f168201915b5050505050905084565b60008060009054906101000a900473ffffffffffffffffffffffffffffffffffffffff169050600060405180602001604052808481525090508173ffffffffffffffffffffffffffffffffffffffff1663ebf66ef1826040518263ffffffff1660e01b81526004016103fe9190611394565b600060405180830381600087803b15801561041857600080fd5b505af115801561042c573d6000803e3d6000fd5b50505050505050565b6060600060025467ffffffffffffffff81111561045557610454610c46565b5b60405190808252806020026020018201604052801561048e57816020015b61047b610a22565b8152602001906001900390816104735790505b50905060005b6002548110156106ad5760016000828152602001908152602001600020604051806080016040529081600082015481526020016001820180546104d690611339565b80601f016020809104026020016040519081016040528092919081815260200182805461050290611339565b801561054f5780601f106105245761010080835404028352916020019161054f565b820191906000526020600020905b81548152906001019060200180831161053257829003601f168201915b5050505050815260200160028201805461056890611339565b80601f016020809104026020016040519081016040528092919081815260200182805461059490611339565b80156105e15780601f106105b6576101008083540402835291602001916105e1565b820191906000526020600020905b8154815290600101906020018083116105c457829003601f168201915b505050505081526020016003820180546105fa90611339565b80601f016020809104026020016040519081016040528092919081815260200182805461062690611339565b80156106735780601f1061064857610100808354040283529160200191610673565b820191906000526020600020905b81548152906001019060200180831161065657829003601f168201915b50505050508152505082828151811061068f5761068e6113b6565b5b602002602001018190525080806106a590611414565b915050610494565b508091505090565b6106bd610a4a565b60008060009054906101000a900473ffffffffffffffffffffffffffffffffffffffff16905060008173ffffffffffffffffffffffffffffffffffffffff166365a9b4a0856040518263ffffffff1660e01b815260040161071e919061145c565b6040805180830381865afa15801561073a573d6000803e3d6000fd5b505050506040513d601f19601f8201168201806040525081019061075e91906114e8565b90508092505050919050565b600360009054906101000a900473ffffffffffffffffffffffffffffffffffffffff1681565b6000600160008561ffff168152602001908152602001600020905082828260030191826107be9291906116cc565b5050505050565b6000600260008154809291906107da90611414565b91905055506107e7610a22565b60025481600001818152505087878080601f016020809104026020016040519081016040528093929190818152602001838380828437600081840152601f19601f82011690508083019250505050505050816020018190525085858080601f016020809104026020016040519081016040528093929190818152602001838380828437600081840152601f19601f82011690508083019250505050505050816040018190525083838080601f016020809104026020016040519081016040528093929190818152602001838380828437600081840152601f19601f8201169050808301925050505050505081606001819052508060016000600254815260200190815260200160002060008201518160000155602082015181600101908161090f91906117f7565b50604082015181600201908161092591906117f7565b50606082015181600301908161093b91906118c9565b509050506002549150509695505050505050565b610957610a64565b60008060009054906101000a900473ffffffffffffffffffffffffffffffffffffffff1690506000604051806040016040528086815260200185815250905060008273ffffffffffffffffffffffffffffffffffffffff166313178dc1836040518263ffffffff1660e01b81526004016109d191906119d8565b6020604051808303816000875af11580156109f0573d6000803e3d6000fd5b505050506040513d601f19601f82011682018060405250810190610a149190611a36565b905080935050505092915050565b6040518060800160405280600081526020016060815260200160608152602001606081525090565b604051806040016040528060008152602001600081525090565b6040518060200160405280600081525090565b6000604051905090565b600080fd5b600080fd5b6000819050919050565b610a9e81610a8b565b8114610aa957600080fd5b50565b600081359050610abb81610a95565b92915050565b600060208284031215610ad757610ad6610a81565b5b6000610ae584828501610aac565b91505092915050565b610af781610a8b565b82525050565b600081519050919050565b600082825260208201905092915050565b60005b83811015610b37578082015181840152602081019050610b1c565b60008484015250505050565b6000601f19601f8301169050919050565b6000610b5f82610afd565b610b698185610b08565b9350610b79818560208601610b19565b610b8281610b43565b840191505092915050565b600081519050919050565b600082825260208201905092915050565b6000610bb482610b8d565b610bbe8185610b98565b9350610bce818560208601610b19565b610bd781610b43565b840191505092915050565b6000608082019050610bf76000830187610aee565b8181036020830152610c098186610b54565b90508181036040830152610c1d8185610b54565b90508181036060830152610c318184610ba9565b905095945050505050565b600080fd5b600080fd5b7f4e487b7100000000000000000000000000000000000000000000000000000000600052604160045260246000fd5b610c7e82610b43565b810181811067ffffffffffffffff82111715610c9d57610c9c610c46565b5b80604052505050565b6000610cb0610a77565b9050610cbc8282610c75565b919050565b600067ffffffffffffffff821115610cdc57610cdb610c46565b5b610ce582610b43565b9050602081019050919050565b82818337600083830152505050565b6000610d14610d0f84610cc1565b610ca6565b905082815260208101848484011115610d3057610d2f610c41565b5b610d3b848285610cf2565b509392505050565b600082601f830112610d5857610d57610c3c565b5b8135610d68848260208601610d01565b91505092915050565b600060208284031215610d8757610d86610a81565b5b600082013567ffffffffffffffff811115610da557610da4610a86565b5b610db184828501610d43565b91505092915050565b600081519050919050565b600082825260208201905092915050565b6000819050602082019050919050565b610def81610a8b565b82525050565b600082825260208201905092915050565b6000610e1182610afd565b610e1b8185610df5565b9350610e2b818560208601610b19565b610e3481610b43565b840191505092915050565b600082825260208201905092915050565b6000610e5b82610b8d565b610e658185610e3f565b9350610e75818560208601610b19565b610e7e81610b43565b840191505092915050565b6000608083016000830151610ea16000860182610de6565b5060208301518482036020860152610eb98282610e06565b91505060408301518482036040860152610ed38282610e06565b91505060608301518482036060860152610eed8282610e50565b9150508091505092915050565b6000610f068383610e89565b905092915050565b6000602082019050919050565b6000610f2682610dba565b610f308185610dc5565b935083602082028501610f4285610dd6565b8060005b85811015610f7e5784840389528151610f5f8582610efa565b9450610f6a83610f0e565b925060208a01995050600181019050610f46565b50829750879550505050505092915050565b60006020820190508181036000830152610faa8184610f1b565b905092915050565b604082016000820151610fc86000850182610de6565b506020820151610fdb6020850182610de6565b50505050565b6000604082019050610ff66000830184610fb2565b92915050565b600073ffffffffffffffffffffffffffffffffffffffff82169050919050565b600061102782610ffc565b9050919050565b6110378161101c565b82525050565b6000602082019050611052600083018461102e565b92915050565b600061ffff82169050919050565b61106f81611058565b811461107a57600080fd5b50565b60008135905061108c81611066565b92915050565b600080fd5b600080fd5b60008083601f8401126110b2576110b1610c3c565b5b8235905067ffffffffffffffff8111156110cf576110ce611092565b5b6020830191508360018202830111156110eb576110ea611097565b5b9250929050565b60008060006040848603121561110b5761110a610a81565b5b60006111198682870161107d565b935050602084013567ffffffffffffffff81111561113a57611139610a86565b5b6111468682870161109c565b92509250509250925092565b60008083601f84011261116857611167610c3c565b5b8235905067ffffffffffffffff81111561118557611184611092565b5b6020830191508360018202830111156111a1576111a0611097565b5b9250929050565b600080600080600080606087890312156111c5576111c4610a81565b5b600087013567ffffffffffffffff8111156111e3576111e2610a86565b5b6111ef89828a01611152565b9650965050602087013567ffffffffffffffff81111561121257611211610a86565b5b61121e89828a01611152565b9450945050604087013567ffffffffffffffff81111561124157611240610a86565b5b61124d89828a0161109c565b92509250509295509295509295565b60006020820190506112716000830184610aee565b92915050565b6000806040838503121561128e5761128d610a81565b5b600083013567ffffffffffffffff8111156112ac576112ab610a86565b5b6112b885828601610d43565b92505060206112c985828601610aac565b9150509250929050565b6020820160008201516112e96000850182610de6565b50505050565b600060208201905061130460008301846112d3565b92915050565b7f4e487b7100000000000000000000000000000000000000000000000000000000600052602260045260246000fd5b6000600282049050600182168061135157607f821691505b6020821081036113645761136361130a565b5b50919050565b600060208301600083015184820360008601526113878282610e06565b9150508091505092915050565b600060208201905081810360008301526113ae818461136a565b905092915050565b7f4e487b7100000000000000000000000000000000000000000000000000000000600052603260045260246000fd5b7f4e487b7100000000000000000000000000000000000000000000000000000000600052601160045260246000fd5b600061141f82610a8b565b91507fffffffffffffffffffffffffffffffffffffffffffffffffffffffffffffffff8203611451576114506113e5565b5b600182019050919050565b600060208201905081810360008301526114768184610b54565b905092915050565b600080fd5b60008151905061149281610a95565b92915050565b6000604082840312156114ae576114ad61147e565b5b6114b86040610ca6565b905060006114c884828501611483565b60008301525060206114dc84828501611483565b60208301525092915050565b6000604082840312156114fe576114fd610a81565b5b600061150c84828501611498565b91505092915050565b600082905092915050565b60008190508160005260206000209050919050565b60006020601f8301049050919050565b600082821b905092915050565b6000600883026115827fffffffffffffffffffffffffffffffffffffffffffffffffffffffffffffffff82611545565b61158c8683611545565b95508019841693508086168417925050509392505050565b6000819050919050565b60006115c96115c46115bf84610a8b565b6115a4565b610a8b565b9050919050565b6000819050919050565b6115e3836115ae565b6115f76115ef826115d0565b848454611552565b825550505050565b600090565b61160c6115ff565b6116178184846115da565b505050565b5b8181101561163b57611630600082611604565b60018101905061161d565b5050565b601f8211156116805761165181611520565b61165a84611535565b81016020851015611669578190505b61167d61167585611535565b83018261161c565b50505b505050565b600082821c905092915050565b60006116a360001984600802611685565b1980831691505092915050565b60006116bc8383611692565b9150826002028217905092915050565b6116d68383611515565b67ffffffffffffffff8111156116ef576116ee610c46565b5b6116f98254611339565b61170482828561163f565b6000601f8311600181146117335760008415611721578287013590505b61172b85826116b0565b865550611793565b601f19841661174186611520565b60005b8281101561176957848901358255600182019150602085019450602081019050611744565b868310156117865784890135611782601f891682611692565b8355505b6001600288020188555050505b50505050505050565b60008190508160005260206000209050919050565b601f8211156117f2576117c38161179c565b6117cc84611535565b810160208510156117db578190505b6117ef6117e785611535565b83018261161c565b50505b505050565b61180082610afd565b67ffffffffffffffff81111561181957611818610c46565b5b6118238254611339565b61182e8282856117b1565b600060209050601f831160018114611861576000841561184f578287015190505b61185985826116b0565b8655506118c1565b601f19841661186f8661179c565b60005b8281101561189757848901518255600182019150602085019450602081019050611872565b868310156118b457848901516118b0601f891682611692565b8355505b6001600288020188555050505b505050505050565b6118d282610b8d565b67ffffffffffffffff8111156118eb576118ea610c46565b5b6118f58254611339565b61190082828561163f565b600060209050601f8311600181146119335760008415611921578287015190505b61192b85826116b0565b865550611993565b601f19841661194186611520565b60005b8281101561196957848901518255600182019150602085019450602081019050611944565b868310156119865784890151611982601f891682611692565b8355505b6001600288020188555050505b505050505050565b600060408301600083015184820360008601526119b88282610e06565b91505060208301516119cd6020860182610de6565b508091505092915050565b600060208201905081810360008301526119f2818461199b565b905092915050565b600060208284031215611a1057611a0f61147e565b5b611a1a6020610ca6565b90506000611a2a84828501611483565b60008301525092915050565b600060208284031215611a4c57611a4b610a81565b5b6000611a5a848285016119fa565b9150509291505056fea2646970667358221220430e4f4da93ef6906360d3adf28cb7fa22060ce48c8c2c14f6a9d7d35dd4f8af64736f6c63430008110033",
  "linkReferences": {},
  "deployedLinkReferences": {}
}